{
    "contractName": "Teencoins_ico",
    "abi": [
        {
            "inputs": [
                {
                    "internalType": "address",
                    "name": "investor",
                    "type": "address"
                },
                {
                    "internalType": "uint256",
                    "name": "usd_invested",
                    "type": "uint256"
                }
            ],
            "name": "buy_teencoins",
            "outputs": [],
            "stateMutability": "nonpayable",
            "type": "function"
        },
        {
            "inputs": [
                {
                    "internalType": "address",
                    "name": "investor",
                    "type": "address"
                }
            ],
            "name": "equtiy_in_teencoins",
            "outputs": [
                {
                    "internalType": "uint256",
                    "name": "",
                    "type": "uint256"
                }
            ],
            "stateMutability": "view",
            "type": "function"
        },
        {
            "inputs": [
                {
                    "internalType": "address",
                    "name": "investor",
                    "type": "address"
                }
            ],
            "name": "equtiy_in_usd",
            "outputs": [
                {
                    "internalType": "uint256",
                    "name": "",
                    "type": "uint256"
                }
            ],
            "stateMutability": "view",
            "type": "function"
        },
        {
            "inputs": [],
            "name": "max_teencoins",
            "outputs": [
                {
                    "internalType": "uint256",
                    "name": "",
                    "type": "uint256"
                }
            ],
            "stateMutability": "view",
            "type": "function"
        },
        {
            "inputs": [
                {
                    "internalType": "address",
                    "name": "investor",
                    "type": "address"
                },
                {
                    "internalType": "uint256",
                    "name": "teencoins_sold",
                    "type": "uint256"
                }
            ],
            "name": "sell_teencoins",
            "outputs": [],
            "stateMutability": "nonpayable",
            "type": "function"
        },
        {
            "inputs": [],
            "name": "total_teencoins_bought",
            "outputs": [
                {
                    "internalType": "uint256",
                    "name": "",
                    "type": "uint256"
                }
            ],
            "stateMutability": "view",
            "type": "function"
        },
        {
            "inputs": [],
            "name": "usd_to_teencoins",
            "outputs": [
                {
                    "internalType": "uint256",
                    "name": "",
                    "type": "uint256"
                }
            ],
            "stateMutability": "view",
            "type": "function"
        }
    ],
    "bytecode": "6080604052620f42406000556103e8600155600060025534801561002257600080fd5b5061039e806100326000396000f3fe608060405234801561001057600080fd5b506004361061007d5760003560e01c80632f2d32f11161005b5780632f2d32f1146100fb5780632f3aba0314610104578063a3553b221461010d578063bf1c3e8a1461011657600080fd5b80631caf842c146100825780631d8c1b91146100bd5780631f4d9b54146100d2575b600080fd5b6100ab610090366004610296565b6001600160a01b031660009081526004602052604090205490565b60405190815260200160405180910390f35b6100d06100cb3660046102b8565b610129565b005b6100ab6100e0366004610296565b6001600160a01b031660009081526003602052604090205490565b6100ab60015481565b6100ab60005481565b6100ab60025481565b6100d06101243660046102b8565b6101f0565b806000546002546001548361013e91906102f8565b6101489190610317565b111561015357600080fd5b600061015f83806102f8565b6001600160a01b03851660009081526003602052604081208054929350839290919061018c908490610317565b90915550506001600160a01b0384166000908152600360205260409020546101b7906103e89061032f565b6001600160a01b038516600090815260046020526040812091909155600280548392906101e5908490610317565b909155505050505050565b6001600160a01b03821660009081526003602052604081208054839290610218908490610351565b90915550506001600160a01b038216600090815260036020526040902054610243906103e89061032f565b6001600160a01b03831660009081526004602052604081209190915560028054839290610271908490610351565b90915550505050565b80356001600160a01b038116811461029157600080fd5b919050565b6000602082840312156102a857600080fd5b6102b18261027a565b9392505050565b600080604083850312156102cb57600080fd5b6102d48361027a565b946020939093013593505050565b634e487b7160e01b600052601160045260246000fd5b6000816000190483118215151615610312576103126102e2565b500290565b6000821982111561032a5761032a6102e2565b500190565b60008261034c57634e487b7160e01b600052601260045260246000fd5b500490565b600082821015610363576103636102e2565b50039056fea2646970667358221220e53b5c3efbcd344b56d685d3114162129fc1ac02d7b47dea31898e5e79ab5e4b64736f6c634300080d0033",
    "sourcePath": "e:/GitKraken/MayaZen/Blockchain A-Z/Modul 3 - Create a Smart Contract/teencoin_ico.sol",
    "compiler": {
        "name": "solc",
        "version": "0.8.13+commit.abaa5c0e"
    },
    "functionHashes": {
        "buy_teencoins(address,uint256)": "1d8c1b91",
        "equtiy_in_teencoins(address)": "1f4d9b54",
        "equtiy_in_usd(address)": "1caf842c",
        "max_teencoins()": "2f3aba03",
        "sell_teencoins(address,uint256)": "bf1c3e8a",
        "total_teencoins_bought()": "a3553b22",
        "usd_to_teencoins()": "2f2d32f1"
    },
    "gasEstimates": {
        "creation": {
            "codeDepositCost": "185200",
            "executionCost": "49444",
            "totalCost": "234644"
        },
        "external": {
            "buy_teencoins(address,uint256)": "infinite",
            "equtiy_in_teencoins(address)": "2570",
            "equtiy_in_usd(address)": "2526",
            "max_teencoins()": "2305",
            "sell_teencoins(address,uint256)": "infinite",
            "total_teencoins_bought()": "2327",
            "usd_to_teencoins()": "2283"
        }
    }
}